:100000000C942A000C9447000C9447000C94470071
:100010000C9447000C9447000C9447000C94770311
:100020000C9447000C9447000C9447000C94470034
:100030000C9447000C9447000C9447000C94470024
:100040000C9447000C9447000C9447000C94470014
:100050000C94470011241FBECFE5D8E0DEBFCDBF12
:1000600011E0A0E6B0E0EAEDF3E202C005900D92E7
:10007000A231B107D9F726E0A2E1B1E001C01D929B
:10008000A635B207E1F70E94CD0E0C94EB110C944B
:100090000000CF93DF938BE090E00E946101EC01C0
:1000A000009731F0FC0111921192CF010E9497014B
:1000B000CE01DF91CF910895AF92BF92CF92DF92A0
:1000C000EF92FF920F931F93CF93DF937C016B010D
:1000D000A42EB22E0E947607F701C081D181B11003
:1000E00008C081E09E012C213D21232B51F480E0AA
:1000F00008C081E09E012C213D212C153D0509F011
:1001000080E0882361F0AA2009F450C0B601609510
:1001100070956C237D23F7017183608347C00115BF
:10012000110509F443C0AA2019F060E071E002C093
:1001300060E070E0B11074606C297D29A801C701EE
:1001400002960E94A2090E943908811102C00E94F1
:10015000C2020E94890A91FD26C00FB6F8940F9240
:10016000F70180819181B11008C021E0A6014823E8
:100170005923452B51F420E008C021E0A601482373
:1001800059234C155D0509F020E0222351F0AA20E7
:1001900041F0B6016095709568237923F70171836A
:1001A00060830F900FBEEC01DD2702C00E9439086A
:1001B000CE01DF91CF911F910F91FF90EF90DF90D3
:1001C000CF90BF90AF900895FC010FB6F8940F92B6
:1001D0008081918160957095682379237183608314
:1001E0000F900FBE0895AF92BF92CF92DF92EF9221
:1001F000FF920F931F93CF93DF937C018B01EC0150
:1002000025960E947607D7011796ED91FC911897D5
:100210008D919C911197082B192B0D931C93CE1740
:10022000DF07A1F100E010E0BB24B394A12CC28051
:10023000D380808191819C01332792FD0AC0D70130
:100240006D917C91622373234B2D672B61F44A2DB2
:100250000AC0D7016D917C91622373234B2D6217E5
:10026000730709F04A2D442359F090FF02C0022B76
:10027000132BD7016D917C917260CF010E940E0A01
:10028000EC2DFD2DCE17DF0791F602C000E010E047
:1002900000951095F701808191810823192311831E
:1002A00000830E943908D7018D919C91DF91CF91F5
:1002B0001F910F91FF90EF90DF90CF90BF90AF9084
:1002C0000895CF93DF93EC010E947607809112018D
:1002D00090911301892B31F487E191E09093130100
:1002E000809312012091140130911501C9018C0FE6
:1002F0009D1F8F3A44E0940770F42817390770F473
:10030000C0911201D0911301C20FD31F9093150118
:100310008093140105C0C0E0D0E002C0C0E0D0E08E
:100320000E943908CE01DF91CF9108950895FC0114
:100330000396928381832FEF3FEF34832383968349
:1003400085839087878310820895FC01118610862B
:100350000895CF93DF939C01FB01DC011196CD91B1
:10036000DC911297D383C2838C819D819583848392
:100370008C819D81DC0113967C936E9312977D8313
:100380006C8331872087F90180818F5F8083DF91C3
:10039000CF910895CF93DF93EB01488159814F3F6F
:1003A0002FEF520721F4FC01A781B0850DC0DC01BD
:1003B000139601C0DF011296ED91FC9113972081F5
:1003C000318142175307B0F71296ED91FC911397C4
:1003D000FB83EA83D583C483BD83AC831396DC930C
:1003E000CE93129799878887FC0120812F5F208305
:1003F000DF91CF910895CF93DF93FC01A085B18564
:10040000C281D381848195819D838C83C481D58170
:10041000828193819B838A8311968D919C911297FF
:10042000E817F90731F48481958112969C938E9395
:100430001197118610868C9181508C93DF91CF910A
:10044000089531E1FC013083319722E22083319716
:10045000A3E3A08331976083319770833197108233
:10046000319760E8608331971082319762E0608352
:10047000319763E06083319764E06083319765E092
:100480006083319766E06083319767E060833197DE
:1004900068E06083319769E06083319760E1608351
:1004A00031973083319732E13083319733E13083B4
:1004B000319734E13083319735E13083319736E13C
:1004C0003083319737E13083319738E1308331978A
:1004D00039E13083319730E23083319731E2308334
:1004E00031972083319723E22083319740833197DE
:1004F0005083319726E22083319727E2208331977A
:1005000028E22083319729E22083319720E320835A
:10051000319721E32083869708951BBC8CE78ABD21
:100520008BE08EBD89B7806189BFA0914106B091F3
:100530004206CD91CDBFDD91DEBFFF91EF91DF91FE
:10054000CF91BF91AF919F918F917F916F915F916B
:100550004F913F912F911F910F91FF90EF90DF905E
:10056000CF90BF90AF909F908F907F906F905F9053
:100570004F903F902F901F900F900FBE0F900895B7
:1005800081E008950F920FB6F8940F921F921124F4
:100590002F923F924F925F926F927F928F929F9293
:1005A000AF92BF92CF92DF92EF92FF920F931F9381
:1005B0002F933F934F935F936F937F938F939F936B
:1005C000AF93BF93CF93DF93EF93FF93A091410637
:1005D000B09142060DB60D920EB60D920E9418090A
:1005E000A0914106B0914206CD91CDBFDD91DEBF15
:1005F000FF91EF91DF91CF91BF91AF919F918F913B
:100600007F916F915F914F913F912F911F910F912A
:10061000FF90EF90DF90CF90BF90AF909F908F9022
:100620007F906F905F904F903F902F901F900F9012
:100630000FBE0F9008950F920FB6F8940F921F926D
:1006400011242F923F924F925F926F927F928F92DE
:100650009F92AF92BF92CF92DF92EF92FF920F9351
:100660001F932F933F934F935F936F937F938F933A
:100670009F93AF93BF93CF93DF93EF93FF93A0919B
:100680004106B09142060DB60D920EB60D920E9433
:100690007C0781110E941809A0914106B091420681
:1006A000CD91CDBFDD91DEBFFF91EF91DF91CF9175
:1006B000BF91AF919F918F917F916F915F914F917A
:1006C0003F912F911F910F91FF90EF90DF90CF906E
:1006D000BF90AF909F908F907F906F905F904F9062
:1006E0003F902F901F900F900FBE0F9008950E9483
:1006F0001B0318951F93CF93DF93EC01142F4C8DA0
:100700004423D9F1111116C050E08C819D810E94C3
:10071000A5112C8D8C819D81820F911D9D838C83D1
:100720002A813B818217930740F1888199819D83BB
:100730008C8323C050E08E819F810E94A5118C8DF7
:1007400090E09195819591092E813F81280F391F65
:100750003F832E83488159812417350730F42A813D
:100760003B81820F931F9F838E83123031F48A8DD9
:10077000882319F08A8D81508A8F8A8D8F5F8A8FA6
:1007800080E0DF91CF911F910895FC01448D4423B7
:10079000A9F050E026813781240F351F3783268347
:1007A000828193812817390720F080819181978376
:1007B0008683CB01668177810E94A51108950F93EE
:1007C0001F93CF93DF93EC010FB6F8940F928E8DA9
:1007D0001816BCF48989811105C013C0898981115B
:1007E00004C00FC08E010F5E1F4FC8010E94C609D2
:1007F00081110E94850A8E8D81508E8F8E8D1816E4
:100800006CF38FEF8E8F0F900FBE0FB6F8940F9290
:100810008D8D1816BCF48885811105C013C088859C
:10082000811104C00FC08E01085F1F4FC8010E94D4
:10083000C60981110E94850A8D8D81508D8F8D8D05
:1008400018166CF38FEF8D8F0F900FBEDF91CF9145
:100850001F910F910895CF93DF93EC010FB6F89499
:100860000F92488159812C8D30E07B8D729FC001A1
:10087000739F900D1124FA01E80FF91FFB83EA839F
:100880001A8E5D834C83821B930B840F951F9F836D
:100890008E838FEF8D8F8E8F61110CC0888588239A
:1008A00089F0CE0108960E94C609813059F40E9451
:1008B000C20208C0CE0108960E949701CE0141965F
:1008C0000E9497010F900FBE81E0DF91CF910895B4
:1008D0000F931F93CF93DF93882301F1062F182FD7
:1008E0008FE190E00E946101EC01892BC9F0109F1B
:1008F000C001112401960E94610199838883892B8C
:1009000039F01B8F0C8F61E0CE010E942B0408C0D0
:10091000CE010E949601C0E0D0E002C0C0E0D0E06D
:10092000CE01DF91CF911F910F9108959F92AF92C9
:10093000BF92CF92DF92EF92FF920F931F93CF93CC
:10094000DF9300D000D01F92CDB7DEB78C016B01D2
:100950005D834C83A22EB12C992493947C0188E072
:10096000E80EF11C0FB6F8940F92F801928D838D6A
:10097000981718F0F2E0AF1219C04A2DB601C8015D
:100980000E947A03F8019189992349F0C8014196A0
:100990000E94C609813031F40E94C20203C0811155
:1009A0000E94C2020F900FBE81E050C08C819D81D9
:1009B000892B21F40F900FBE80E048C0B11005C014
:1009C000CE0101960E94480AB92C0F900FBE0E94DA
:1009D00076070FB6F8940F92F801858D8F3F09F4D2
:1009E000158EF801868D8F3F09F4168E0F900FBE7D
:1009F000BE016C5F7F4FCE0101960E94530A8111A8
:100A00001FC00FB6F8940F92F801928D0F900FBE91
:100A1000838D98130FC06C817D81C7010E94850969
:100A2000C8010E94DF030E94390881119BCF0E94F8
:100A3000C20298CFC8010E94DF030E94390892CFFA
:100A4000C8010E94DF030E94390880E00F900F90D8
:100A50000F900F900F90DF91CF911F910F91FF900A
:100A6000EF90DF90CF90BF90AF909F9008959F92AE
:100A7000AF92BF92CF92DF92EF92FF920F931F93AC
:100A8000CF93DF9300D000D01F92CDB7DEB78C019B
:100A90006B015D834C83922EB12CAA24A3947C011C
:100AA00081E1E80EF11C0FB6F8940F92F801828DE7
:100AB000882349F1E680F780B601C8010E94C5038A
:100AC000911010C0F801828D8150828F808588231B
:100AD000B1F0C80108960E94C609813081F40E94D5
:100AE000C2020DC0F801F782E6828189882339F0BD
:100AF000C80141960E94C60981110E94C2020F904E
:100B00000FBE81E04FC08C819D81892B21F40F9015
:100B10000FBE80E047C0B11005C0CE0101960E9413
:100B2000480ABA2C0F900FBE0E9476070FB6F894B1
:100B30000F92F801858D8F3F09F4158EF801868D8F
:100B40008F3F09F4168E0F900FBEBE016C5F7F4F72
:100B5000CE0101960E94530A81111EC00FB6F8946F
:100B60000F92F801828D0F900FBE81110FC06C8122
:100B70007D81C7010E948509C8010E94DF030E9490
:100B80003908811190CF0E94C2028DCFC8010E9406
:100B9000DF030E94390887CFC8010E94DF030E944B
:100BA000390880E00F900F900F900F900F90DF9119
:100BB000CF911F910F91FF90EF90DF90CF90BF905A
:100BC000AF909F900895E091E505F091E605808152
:100BD000811107C08FEF9FEF9093610080936000B9
:100BE0000895E091E505F091E6050580F681E02D98
:100BF0000680F781E02D828193819093610080933C
:100C000060000895CF93DF93EC01E0914106F091ED
:100C10004206938382838091CD059091CE05C817BB
:100C2000D90768F460914106709142068091E3050E
:100C30009091E4056E5F7F4F0E94CA0117C06091DA
:100C40004106709142068091E5059091E6056E5F40
:100C50007F4F0E94CA018091600090916100C81787
:100C6000D90720F4D0936100C0936000DF91CF9149
:100C700008954F925F926F927F928F929F92AF9260
:100C8000BF92CF92DF92EF92FF920F931F93CF9379
:100C9000DF934C01EB015A0129018DE290E00E94A3
:100CA00061013C01009709F4E4C0C114D10409F0CA
:100CB000DCC0C5010E946101F301908F878B892BF5
:100CC00021F4C3010E949601D4C0F1E0AF1AB1082B
:100CD000F3018789908DA80EB91E8881818F888144
:100CE000882381F0D3015A96FE0131969E012C5E35
:100CF0003F4FEF0181918D938881882319F02E1742
:100D00003F07B9F7F30114A6102F083008F017E0D9
:100D1000F301168BE3012296CE010E94A501C301C7
:100D20000C960E94A501F3017186608688E090E030
:100D3000811B910995878487738A628AA201B40115
:100D4000C5010E942102F30191838083E114F10423
:100D500019F0F701718260820FB6F8940F928091BA
:100D6000CF058F5F8093CF05809141069091420619
:100D7000892BD9F570924206609241068091CF0589
:100D8000813009F041C00F2EF9EFEF2EF5E0FF2E74
:100D9000F02D0F2EF1E4CF2EF6E0DF2EF02DC7015F
:100DA0000E949701F9E0EF0EF11CCE14DF04B9F7B1
:100DB00080EF95E00E94970187EE95E00E949701F1
:100DC0008AED95E00E94970181ED95E00E949701E0
:100DD00080EF95E09093E6058093E50587EE95E03A
:100DE0009093E4058093E3050FC08091CB058111BA
:100DF0000BC0E0914106F09142068689081720F069
:100E000070924206609241068091C7058F5F809381
:100E1000C705F30186899091CC05981710F480934B
:100E2000CC0590E09C01220F331F220F331F220FAD
:100E3000331F820F931FBE0187509A4F0E94A90152
:100E40000F900FBE8091CB05882359F0E0914106A9
:100E5000F09142068689801730F40E94C20281E038
:100E600009C081E007C081E005C0FC01D08EC78ABF
:100E70002CCF8FEFDF91CF911F910F91FF90EF90CB
:100E8000DF90CF90BF90AF909F908F907F906F90AA
:100E90005F904F900895AF92BF92CF92DF92EF9202
:100EA000FF920F93A12CB12CC12CD12CE12CF12C51
:100EB00000E020E030E045E550E062E670E08BEDD8
:100EC00098E00E943906813049F4F8948093CB056C
:100ED0001092CE051092CD050E948D020F91FF90C9
:100EE000EF90DF90CF90BF90AF9008958091C605AE
:100EF0008F5F8093C6050895CF92DF92EF92FF92A5
:100F00000F931F93CF93DF938091C60581119BC0F0
:100F10008091CD059091CE0501969093CE0580935A
:100F2000CD05E090CD05F090CE05E114F104B9F4C3
:100F30008091E5059091E6052091E3053091E40567
:100F40003093E6052093E5059093E4058093E3054F
:100F50008091C8058F5F8093C8050E94E30580914A
:100F6000600090916100E816F90610F4D12C53C08E
:100F7000D12CCC24C394E091E505F091E605808165
:100F8000811107C08FEF9FEF909361008093600005
:100F900042C0E091E505F091E6050580F681E02D7F
:100FA000C681D7818A819B81E816F90628F490933F
:100FB0006100809360002FC08E010E5F1F4FC8013B
:100FC0000E94FB018C899D89892B21F0CE010C9612
:100FD0000E94FB018E899091CC05981710F48093A4
:100FE000CC0590E09C01220F331F220F331F220FEC
:100FF000331F820F931FB80187509A4F0E94A90197
:10100000E0914106F09142069E898689981708F47E
:10101000B2CFDC2CB0CFE0914106F0914206868938
:1010200090E0FC01EE0FFF1FEE0FFF1FEE0FFF1F02
:101030008E0F9F1FFC01E750FA4F8081823048F0ED
:10104000DD24D39406C08091CA058F5F8093CA05C2
:10105000D12C8091C905882311F0DD24D3948D2DE6
:10106000DF91CF911F910F91FF90EF90DF90CF9084
:101070000895DF92EF92FF920F931F93CF93DF9328
:101080000FB6F8940F928091C60581508093C605E3
:101090008091C605811162C08091CF05811133C056
:1010A00060C0D7011596ED91FC911697C681D78146
:1010B000CE010C960E94FB018E010E5F1F4FC801EE
:1010C0000E94FB018E899091CC05981710F48093B3
:1010D000CC0590E09C01220F331F220F331F220FFB
:1010E000331F820F931FB80187509A4F0E94A901A6
:1010F000E0914106F09142069E898689981758F042
:10110000D092C90508C00F2EFAEDEF2EF5E0FF2EA4
:10111000F02DDD24D394F70180818111C2CF80911D
:10112000CA05882399F08091CA05882379F0C1E027
:101130000E947C078111C093C9058091CA05815026
:101140008093CA058091CA058111F2CF8091C905AB
:10115000813031F40E94C20281E003C080E001C00E
:1011600080E00F900FBEDF91CF911F910F91FF9004
:10117000EF90DF900895CF93DF93EC01892BB1F0CE
:101180000E9476078091CD059091CE05C80FD91F9A
:10119000809141069091420602960E94FB01CE0189
:1011A0000E9402060E943908811102C00E94C202F8
:1011B000DF91CF91089501ED15E00F2EF9EFEF2E9D
:1011C000F5E0FF2EF02D29C00E947607D801CC91C2
:1011D0000E943908CC2309F10FB6F8940F92D80178
:1011E0001596ED91FC911697C681D781CE01029696
:1011F0000E94FB018091CF0581508093CF058091A3
:10120000D00581508093D0050F900FBE8F89988DA7
:101210000E949601CE010E9496018091D005811115
:10122000D3CFF70180818230C0F30E94C202F5CF94
:101230008091C605882321F081E08093C905089537
:101240001092C9058091CC0590E0FC01EE0FFF1FC4
:10125000EE0FFF1FEE0FFF1F8E0F9F1FFC01E750C9
:10126000FA4F8081811117C08091CC058150809305
:10127000CC058091CC0590E0FC01EE0FFF1FEE0F36
:10128000FF1FEE0FFF1F8E0F9F1FFC01E750FA4F4D
:101290008081882349F38091CC0590E09C01220F46
:1012A000331F220F331F220F331F280F391FD9017D
:1012B000A750BA4F1196ED91FC9112970280F381DD
:1012C000E02D1296FC93EE93119724503A4FE217BB
:1012D000F30729F422813381FD0132832183FC014C
:1012E000EE0FFF1FEE0FFF1FEE0FFF1F8E0F9F1F52
:1012F000FC01E750FA4F0180F281E02D8681978151
:1013000090934206809341060895CF93DF93EB01BB
:101310006091410670914206645F7F4F0E94CA014E
:10132000809141069091420602960E94FB018091B5
:10133000CD059091CE058C0F9D1F0E940206DF9176
:10134000CF910895CF93DF93EA01E0914106F091A8
:101350004206706875876487609141067091420605
:10136000645F7F4F0E94A9018091410690914206DF
:1013700002960E94FB018091CD059091CE058C0FC5
:101380009D1F0E940206DF91CF9108950F931F9336
:10139000CF93DF93DC011596ED91FC911697C681F2
:1013A000D7818E01045F1F4FC8010E94FB0180910D
:1013B000C60581111CC00A501109C8010E94FB0119
:1013C0008E899091CC05981710F48093CC0590E00D
:1013D0009C01220F331F220F331F220F331F820F56
:1013E000931FB80187509A4F0E94A90105C0B80108
:1013F0008AED95E00E94A901E0914106F091420634
:101400009E898689891720F481E08093C90501C0EF
:1014100080E0DF91CF911F910F9108950F931F935B
:10142000CF93DF937068FC0171836083C681D7819D
:101430000E94FB018E010E5F1F4FC8010E94FB013D
:101440008E899091CC05981710F48093CC0590E08C
:101450009C01220F331F220F331F220F331F820FD5
:10146000931FB80187509A4F0E94A901E09141064D
:10147000F09142069E898689891720F481E0809345
:10148000C90501C080E0DF91CF911F910F910895B0
:101490002091C805FC0120832091CD053091CE0517
:1014A000328321830895CF93DF93FC010FB6F89424
:1014B0000F922091CD053091CE058091C805908185
:1014C000981729F08181928128173907B0F4A181FA
:1014D000B281EB0148815981C9018A1B9B0B84179A
:1014E000950768F4CF01A21BB30B4A0F5B1F59830A
:1014F00048830E94480A80E003C081E001C081E087
:101500000F900FBEDF91CF91089581E08093C905C0
:101510000895E0914106F091420684859585E09119
:101520004106F0914206A0914106B09142065696BE
:101530004C9128E030E0241B310935872487089539
:10154000C1E5D6E00FEF1FEF20E040E067E070E07C
:1015500080914606909147060E945C008093540655
:101560009093550681FF06C08981813011F4939ACA
:1015700001C093988091540682FF06C08A81813011
:1015800011F4949A01C094988091540680FF06C08B
:101590008881813011F4929A01C0929885E090E0A0
:1015A0000E94BB08CFCF61E070E08091440690912B
:1015B00045060E94F30067E070E080914606909136
:1015C00047060E94E400CAE4D6E001E516E0FF24E5
:1015D000F39420E04FEF5FEF60E070E08091480609
:1015E000909149060E943705882399F399818B8150
:1015F000891720F4F801F282118209C0981720F4AB
:10160000F8011282F18203C0F8011282118266E0B1
:1016100070E080914606909147060E94F3008AE0B0
:1016200090E00E94BB0866E070E0809146069091D1
:1016300047060E94E4009A818C81981718F0F801FF
:10164000108202C0F801F08261E070E080914606ED
:10165000909147060E94F3008AE090E00E94BB0848
:1016600061E070E080914606909147060E94E40098
:1016700060E470E080914406909145060E94F3007A
:10168000A8CFCF93DF93CDB7DEB729970FB6F894E5
:10169000DEBF0FBECDBFFE01329683E0DF01982F83
:1016A0001D929A95E9F73496DF011D928A95E9F724
:1016B0008DE080934306B12C0AE416E06E01B2E09F
:1016C000CB0ED11C0F2EF3E0AF2EF02D0F2EFEE02F
:1016D0007F2EF02D882483947F010F2EFDE09F2E16
:1016E000F02D809143068D3021F08E3009F48BC0AF
:1016F00000C1CE0101960E942F108111FAC0D801BD
:101700008C91811114C08981833409F0F2C08C92CC
:10171000F7018A2D11928A95E9F762E070E08091D5
:101720004406909145060E94F300B12CE2C081303E
:1017300009F0DFC08981833481F4D8011C9261E013
:1017400070E080914406909145060E94F300F601F6
:101750008A2D11928A95E9F7CCC090ED980F9A30B6
:1017600050F492E09B1508F4C4C0F601EB0DF11D96
:101770008083B394BEC08F3491F5C6010E94871157
:10178000009731F4D601EA2D1D92EA95E9F71BC0C6
:10179000D80113968C93F6018A2D11928A95E9F758
:1017A00020E040E050E060E070E0809148069091D9
:1017B00049060E94960460E170E080914406909191
:1017C00045060E94F3007092430660E870E0809145
:1017D0004406909145060E94F300B12C8AC08E34D5
:1017E00009F087C0D601EA2D1D92EA95E9F77092BB
:1017F000430660E870E080914406909145060E949F
:10180000F300B12C76C0CE0101960E942F108111F9
:1018100070C08981833499F490924306D701EA2DF0
:101820001D92EA95E9F7D8011C9261E070E0809181
:101830004406909145060E94F300B12C5AC090EDE9
:10184000980F9A3050F4B2E0BB1508F452C0F7017B
:10185000EB0DF11D8083B3944CC08F34B9F5C701F3
:101860000E948711009731F4F6018A2D11928A9512
:10187000E9F71FC0D80114968C93F6018A2D1192B6
:101880008A95E9F720E040E050E060E070E0809168
:101890004806909149060E94960460E270E08091AB
:1018A0004406909145060E94F30084EF91E00E9467
:1018B000BB0890924306D8011C9261E070E08091D1
:1018C0004406909145060E94F30013C08E3489F4BB
:1018D00090924306F801108261E070E08091440626
:1018E000909145060E94F300D601EA2D1D92EA95DB
:1018F000E9F782E390E00E94BB08F3CECF93DF9339
:1019000000D0CDB7DEB719821A820AE416E0CE0104
:1019100001960E94C70F811119C08981F801918138
:101920009817A1F0818320E040E050E060E070E093
:1019300080914806909149060E94960468E070E004
:1019400080914406909145060E94F300CE010296D4
:101950000E94EB0F811119C08A81F80192819817BA
:10196000A1F0828320E040E050E060E070E08091F0
:101970004806909149060E94960464E070E08091C8
:101980004406909145060E94F30084EF91E00E9486
:10199000BB08BDCFCAE4D6E00F2EF1E5EF2EF6E08E
:1019A000FF2EF02D0FEF1FEF20E041E06FEF70E012
:1019B00080914406909145060E945C0080934F06FA
:1019C0009093500680FFD0C088818111CDC00E94C5
:1019D000C30F87E690E00E947F0F64E080E00E94E2
:1019E000950F82EA90E00E947F0F64E080E00E9401
:1019F000950F898190E00E94A90F60E180E00E942C
:101A0000950F82EA90E00E947F0F60E180E00E94E3
:101A1000950F8A8190E00E94A90F60E081E00E940A
:101A2000950F8CE790E00E947F0F64E081E00E94B8
:101A3000950F82EA90E00E947F0F64E081E00E94AF
:101A4000950F8B8190E00E94A90F60E181E00E94D8
:101A5000950F82EA90E00E947F0F60E181E00E9492
:101A6000950F8C8190E00E94A90F60E082E00E94B7
:101A7000950F81E990E00E947F0FF701808181300E
:101A800089F461E182E00E94950F82EA90E00E9471
:101A90007F0F61E182E00E94950F86EA90E00E944C
:101AA0007F0F10C061E182E00E94950F82EA90E012
:101AB0000E947F0F61E182E00E94950F89EA90E029
:101AC0000E947F0FF7018181813089F462E082E01A
:101AD0000E94950F82EA90E00E947F0F62E082E010
:101AE0000E94950F86EA90E00E947F0F10C062E08E
:101AF00082E00E94950F82EA90E00E947F0F62E0F0
:101B000082E00E94950F89EA90E00E947F0FF70122
:101B10008281813089F46AE082E00E94950F82EA36
:101B200090E00E947F0F6AE082E00E94950F86EAB3
:101B300090E00E947F0F10C06AE082E00E94950F43
:101B400082EA90E00E947F0F6AE082E00E94950F97
:101B500089EA90E00E947F0F60E083E00E94950F89
:101B60008DEA90E00E947F0F80914F0681FF1CC09C
:101B700088818130C9F40E94C30F82EC90E00E94FA
:101B80007F0F87ED90E00E947F0F60E083E00E946E
:101B9000950F8CEE90E00E947F0F6EE080E00E9437
:101BA000950F8FE00E94340F80914F0684FF0FC085
:101BB0008881813009F0CEC06EE080E00E94950FF0
:101BC0008CE00E94340F8B8190E00E94A90F8091DD
:101BD0004F0685FF0EC088818130C9F46EE082E037
:101BE0000E94950F8CE00E94340F8C8190E00E943F
:101BF000A90F80914F0687FF0AC08881813039F490
:101C00006EE082E00E94950F8FE00E94340F809179
:101C10004F0683FF12C088818111A1C064E00E9439
:101C2000950F82EA90E00E947F0F64E080E00E94BE
:101C3000950F898190E00E94A90F80914F0682FF45
:101C400012C088818111AECE60E10E94950F82EAB8
:101C500090E00E947F0F60E180E00E94950F8A81F2
:101C600090E00E94A90F888181119CCE80914F063F
:101C700086FF98CEF7018081813089F461E182E0AE
:101C80000E94950F82EA90E00E947F0F61E182E05E
:101C90000E94950F86EA90E00E947F0F10C061E1DC
:101CA00082E00E94950F82EA90E00E947F0F61E13E
:101CB00082E00E94950F89EA90E00E947F0FF70171
:101CC0008181813089F462E082E00E94950F82EA8E
:101CD00090E00E947F0F62E082E00E94950F86EA0A
:101CE00090E00E947F0F10C062E082E00E94950F9A
:101CF00082EA90E00E947F0F62E082E00E94950FEE
:101D000089EA90E00E947F0FF7018281813089F497
:101D10006AE082E00E94950F82EA90E00E947F0FC5
:101D20006AE082E00E94950F86EA90E00E947F0FB1
:101D300039CE6AE082E00E94950F82EA90E00E942C
:101D40007F0F6AE082E00E94950F89EA90E00E948E
:101D50007F0F28CE80914F0685FD59CF4ACF8091C5
:101D60004F0682FD1FCE7FCF0E94520F0E940F10A0
:101D70008A9A8B9A8C9A929893989498EAE4F6E0CF
:101D800094E191838EE18283938384830E94211066
:101D900081E091E00E9438100895AF92BF92CF92F7
:101DA000DF92EF92FF920F930E94B40E0E944900BF
:101DB00090934706809346060E94490090934506FB
:101DC0008093440643E060E081E00E9468049093C1
:101DD000490680934806A12CB12CC12CD12CE12CB2
:101DE000F12C02E020E030E048EC50E060E070E0F0
:101DF0008AEC9CE00E94390603E020E030E044E6F3
:101E000050E060E070E08EE79CE00E94390604E05C
:101E100020E030E046E950E060E070E081E49BE0E3
:101E20000E94390605E020E030E044E650E060E042
:101E300070E083ED9AE00E94390606E020E030E091
:101E400046E950E060E070E080EA9AE00E943906DE
:101E50000E944B0780E090E00F91FF90EF90DF90A1
:101E6000CF90BF90AF90089595989698EFECF7E0DB
:101E70003197F1F700C00000979AEFECF7E0319747
:101E8000F1F700C0000085BB8FEC97E00197F1F7F8
:101E900000C000009798EFECF7E03197F1F700C031
:101EA0000000089581B3806E81BB8FEF84BB88E30F
:101EB0000E94340F8CE00E94340F81E00E94340FA6
:101EC0000895959A9698EFECF7E03197F1F700C0F6
:101ED0000000979AEFECF7E03197F1F700C00000AF
:101EE00085BB8FEC97E00197F1F700C00000979851
:101EF000EFECF7E03197F1F700C0000008950F9381
:101F00001F93CF93FC018081882359F08F01C0E09B
:101F10000E94610FCF5FF801EC0FF11D80818111EC
:101F2000F7CFCF911F910F910895813031F060F07C
:101F3000823029F0833029F006C0605C05C06C5EF9
:101F400003C06C5A01C060E0862F80680E94340F85
:101F50000895CF93DF9300D000D000D0CDB7DEB787
:101F60004AE0BE016F5F7F4F0E94AE11CE01019625
:101F70000E947F0F26960FB6F894DEBF0FBECDBF2E
:101F8000DF91CF91089581E00E94340F0895CF939F
:101F9000DF93EC0180E00E941310BC0180E090E030
:101FA0000E947D1023E333E343E452E40E94E310F4
:101FB0000E944E109B013695279536952795ABE7E5
:101FC000B4E10E947811969587959983888380E083
:101FD000DF91CF910895CF93DF93EC0181E00E94D0
:101FE0001310BC0180E090E00E947D1023E333E3F6
:101FF00043E452E40E94E3100E944E109B01369588
:10200000279536952795ABE7B4E10E947811969510
:1020100087959983888380E0DF91CF91089517B8E1
:1020200086E886B9089597B1907E97B997B1877081
:10203000982B97B9369A349BFECF349A84B195B1D8
:10204000089582E08BB988E18AB986E880BD10BC2A
:1020500087E689B908955D9BFECF8CB908955F9B93
:1020600005C02CB1FC01208380E0089582E0089532
:102070000F931F93CF93FC018081882359F08F0128
:10208000C0E00E942B10CF5FF801EC0FF11D8081A2
:102090008111F7CFCF911F910F9108950E94C21027
:1020A00088F09F5798F0B92F9927B751B0F0E1F019
:1020B000660F771F881F991F1AF0BA95C9F714C0C9
:1020C000B13091F00E94DC10B1E008950C94DC1066
:1020D000672F782F8827B85F39F0B93FCCF3869502
:1020E00077956795B395D9F73EF49095809570955F
:1020F00061957F4F8F4F9F4F0895E89409C097FBDC
:102100003EF490958095709561957F4F8F4F9F4FCE
:102110009923A9F0F92F96E9BB279395F695879512
:1021200077956795B795F111F8CFFAF4BB0F11F4D5
:1021300060FF1BC06F5F7F4F8F4F9F4F16C088237C
:1021400011F096E911C0772321F09EE8872F762FB2
:1021500005C0662371F096E8862F70E060E02AF0F3
:102160009A95660F771F881FDAF7880F96958795DF
:1021700097F9089557FD9058440F551F59F05F3F48
:1021800071F04795880F97FB991F61F09F3F79F099
:1021900087950895121613061406551FF2CF46951B
:1021A000F1DF08C0161617061806991FF1CF86959D
:1021B0007105610508940895E894BB276627772781
:1021C000CB0197F908950E94F6100C9467110E94B4
:1021D000591138F00E94601120F0952311F00C94F1
:1021E00050110C94561111240C94DD100E94BA1059
:1021F00070F3959FC1F3950F50E0551F629FF0015A
:10220000729FBB27F00DB11D639FAA27F00DB11D72
:10221000AA1F649F6627B00DA11D661F829F2227FB
:10222000B00DA11D621F739FB00DA11D621F839F82
:10223000A00D611D221F749F3327A00D611D231F58
:10224000849F600D211D822F762F6A2F11249F57A6
:1022500050409AF0F1F088234AF0EE0FFF1FBB1FA9
:10226000661F771F881F91505040A9F79E3F510568
:1022700080F00C9450110C94DD105F3FE4F3983E15
:10228000D4F3869577956795B795F795E7959F5F12
:10229000C1F7FE2B880F911D9695879597F90895A4
:1022A00097F99F6780E870E060E008959FEF80EC09
:1022B000089500240A9416161706180609060895AC
:1022C00000240A9412161306140605060895092E12
:1022D0000394000C11F4882352F0BB0F40F4BF2B81
:1022E00011F460FF04C06F5F7F4F8F4F9F4F0895C1
:1022F000A29FB001B39FC001A39F700D811D112447
:10230000911DB29F700D811D1124911D0895FC0136
:1023100088279927E89421912032E9F3293010F099
:102320002E30C8F32B3241F02D3239F4689404C0BA
:102330000E94B911820F911D219120532A30C0F3C0
:102340001EF4909581959F4F0895FB01DC0102C01A
:1023500001900D9241505040D8F70895BB274A3064
:1023600031F4992322F4BDE2909581959F4F0C940E
:10237000C2117AE0979F902D879F802D910D112497
:102380000895BB27FB015527AA27880F991FAA1F6D
:10239000A41710F0A41B83955051B9F7A05DAA3380
:1023A00008F0A95DA193009779F7B111B19311924B
:1023B000CB010C94DB11DC01FC01672F71917723B9
:1023C000E1F7329704C07C916D9370836291AE17F0
:0A23D000BF07C8F30895F894FFCF8B
:1023DA00FFFF49444C450054203D20202020432043
:1023EA0020202048203D20202020250054543D2034
:1023FA00202020432020202054483D202020202532
:10240A0000483A202020202020433A202020202063
:10241A00503A202020004F4E004F464600202043CD
:10242A006F6E66696775726174696F6E3A204320D0
:10243A00200054656D705468726573686F6C643AF5
:10244A002020202020430048756D69546872657306
:10245A00686F6C643A202020202025004F4B3A4FA9
:10246A00204E6578743A4E2043616E63656C3A4338
:10247A000053797374656D20737461727465640DA9
:02248A000A0046
:00000001FF
